:10000000F5C0000024C1000022C1000020C1000092
:100010001EC100001CC100001AC1000018C1000070
:1000200016C1000014C1000012C1000010C1000080
:100030000EC100000CC100000AC1000008C1000090
:1000400006C1000004C1000002C1000000C10000A0
:10005000FEC00000FCC00000FAC000000C94352572
:10006000F6C000000C9472270C94A827F0C0000082
:10007000EEC00000ECC00000EAC00000E8C00000D4
:10008000E6C00000E4C00000E2C00000E0C00000E4
:100090000C94FE270C943428DAC00000D8C000006D
:1000A000D6C00000D4C00000D2C00000D0C0000004
:1000B000CEC00000CCC00000CAC00000C8C0000014
:1000C000C6C00000C4C000000C9470160C948A28AE
:1000D0000C94C028BCC000000C9416290C944C2928
:1000E000B6C00000001D3A2774694E53E8F5D2CF20
:1000F0009C81A6BBCDD0F7EAB9A4839E25381F0208
:10010000514C6B76879ABDA0F3EEC9D46F725548F7
:100110001B06213C4A57706D3E230419A2BF9885E7
:10012000D6CBECF1130E2934677A5D40FBE6C1DCD7
:100130008F92B5A8DEC3E4F9AAB7908D362B0C11C7
:10014000425F78659489AEB3E0FDDAC77C61465BB7
:100150000815322F5944637E2D30170AB1AC8B96A7
:10016000C5D8FFE2263B1C01524F6875CED3F4E997
:10017000BAA7809DEBF6D1CC9F82A5B8031E392487
:10018000776A4D50A1BC9B86D5C8EFF24954736E77
:100190003D20071A6C71564B1805223F8499BEA367
:1001A000F0EDCAD735280F12415C7B66DDC0E7FA57
:1001B000A9B4938EF8E5C2DF8C91B6AB100D2A3747
:1001C00064795E43B2AF8895C6DBFCE15A47607D37
:1001D0002E3314097F6245580B16312C978AADB027
:1001E000E3FED9C4D1275D28E928752911241FBE53
:1001F000CFEFD1E2DEBFCDBF00E00CBF13E0A0E047
:10020000B2E0E2E8FCE500E00BBF02C007900D920F
:10021000AA3DB107D9F727E0AAEDB3E001C01D92CE
:10022000A739B207E1F710E0C6EFD0E000E006C062
:1002300021970109802FFE010E946D2CC23FD1073A
:1002400080E00807A9F70E9493220C943F2ED8CE95
:10025000AB01BC018BEE94E00C94FB2BAB01BC0119
:1002600088E895E00C94FB2BAB01BC0185E296E09D
:100270000C94FB2BAB01BC0182EC96E00C94FB2BA5
:100280008F929F92AF92BF92CF92DF92EF92FF92A6
:100290000F931F93CF93DF93CDB7DEB77B014A0156
:1002A0005901CDB6DEB69B01220F331F4DB75EB7A5
:1002B000421B530B0FB6F8945EBF0FBE4DBF0DB778
:1002C0001EB70F5F1F4FE82FF0E0EE0FFF1FE25F3A
:1002D000FD4F0190F081E02DC8011995F801D4017E
:1002E000E00EF11EEE15FF0519F081918D93FACF06
:1002F00081E0F50180830FB6F894DEBE0FBECDBE5F
:10030000DF91CF911F910F91FF90EF90DF90CF90F1
:10031000BF90AF909F908F9008959F92AF92BF92A1
:10032000CF92DF92EF92FF920F931F93CF93DF93C1
:10033000CDB7DEB7C054D1090FB6F894DEBF0FBEFB
:10034000CDBFB82E8B01942EA52E6901E82EF12C7D
:10035000EE0CFF1CF701EA5FFD4F0190F081E02DEC
:10036000199580179107C9F49601492D5A2DBC01A2
:100370008B2D86DFC05CDF4F0FB6F894DEBF0FBE5B
:10038000CDBFDF91CF911F910F91FF90EF90DF9044
:10039000CF90BF90AF909F9008958017910748F439
:1003A000E92DFA2D0E0F1F1FE017F10719F1119219
:1003B000FBCF9801220F331F2817390728F0960129
:1003C000492D5A2DB801D4CFB8010E94242CCB015D
:1003D0000197809FB001819F700D909F700D112437
:1003E000F701E25FFD4F0190F081E02DCE01019613
:1003F0001995E5CFF6011082BDCF8BEE94E00C94F9
:10040000482688E895E00C94482685E296E00C940E
:10041000482682EC96E00C9448268823E1F082304E
:1004200061F0833089F08130B1F440E855E260E05A
:1004300070E081E090E00C94521640E855E260E0F4
:1004400070E082E090E0F7CF40E855E260E070E0D5
:1004500083E090E0F0CF08954F925F926F927F9289
:100460008F929F92AF92BF92CF92EF92FF920F9393
:100470001F93CF93DF93CDB7DEB72B013A01F02E58
:10048000B40130E02830310511F424E030E00AE016
:1004900010E0CC2061F091E000E110E0C91639F0E5
:1004A000E2E008E010E0CE1611F002E010E081304A
:1004B00009F4E8C0B0F0823009F4C5C1833009F412
:1004C000A3C2DF91CF911F910F91FF90EF90CF903A
:1004D000BF90AF909F908F907F906F905F904F9064
:1004E0000895F1101BC0269DA001279D500D369D3B
:1004F000500D1124B2018BEE94E0DF91CF911F914A
:100500000F91FF90EF90CF90BF90AF909F908F9002
:100510007F906F905F904F900C94A2298BEE94E0A7
:100520000E94DE29E11014C0640C751C641475046B
:1005300041F2F20161912F01F1E0A8018BEE94E00C
:10054000FF1203C00E94B02AF1CF0E94B62AEECF5C
:1005500081E0E81215C091E0691A710808F4B1CF82
:10056000F201619171912F01F1E0A8018BEE94E00D
:10057000FF1203C00E94C62AEECF0E94CB2AEBCF07
:1005800082E0E81217C091E0691A710808F499CF67
:10059000F20141915191619171912F01F1E0980126
:1005A0008BEE94E0FF1203C00E94A42AECCF0E94BD
:1005B000DB2AE9CF83E0E81218C0640C751C6414D0
:1005C000750409F47ECFF20161912F01062E000C13
:1005D000770BF1E0A8018BEE94E0FF1203C00E94BC
:1005E0007E2AEDCF0E94842AEACF84E0E81215C06B
:1005F00091E0691A710808F464CFF2016191719178
:100600002F01F1E0A8018BEE94E0FF1203C00E94DD
:100610007E2AEECF0E94842AEBCF85E0E81217C035
:1006200091E0691A710808F44CCFF201419151919F
:10063000619171912F01F1E098018BEE94E0FF122E
:1006400003C00E94392AECCF0E94942AE9CF86E0A9
:10065000E81237CFB12C91E0691A710808F431CF54
:10066000F20141915191619171912F01F1E0950158
:100670008BEE94E0FF1203C00E94BE2BECCF0E94D1
:10068000BF2BE9CFF1100BC0269DA001279D500D77
:10069000369D500D1124B20188E895E02ECF88E8F0
:1006A00095E00E94DE29E11015C0640C751C46140B
:1006B000570409F406CFF20161912F01F1E0A8017E
:1006C00088E895E0FF1203C00E94B02AF0CF0E9494
:1006D000B62AEDCF81E0E81215C091E0691A7108E1
:1006E00008F4EFCEF201619171912F01F1E0A801C0
:1006F00088E895E0FF1203C00E94C62AEECF0E9450
:10070000CB2AEBCF82E0E81217C091E0691A71089A
:1007100008F4D7CEF20141915191619171912F016D
:10072000F1E0980188E895E0FF1203C00E94A42A36
:10073000ECCF0E94DB2AE9CF83E0E81218C0640CFA
:10074000751C6414750409F4BCCEF20161912F018B
:10075000062E000C770BF1E0A80188E895E0FF1267
:1007600003C00E947E2AEDCF0E94842AEACF84E053
:10077000E81215C091E0691A710808F4A2CEF201DE
:10078000619171912F01F1E0A80188E895E0FF12D5
:1007900003C00E947E2AEECF0E94842AEBCF85E020
:1007A000E81217C091E0691A710808F48ACEF201C4
:1007B00041915191619171912F01F1E0980188E887
:1007C00095E0FF1203C00E94392AECCF0E94942AC0
:1007D000E9CF86E0E81275CEB12C91E0691A710874
:1007E00008F46FCEF20141915191619171912F0105
:1007F000F1E0FF1214C0C11006C0950188E895E031
:100800000E94BE2BEACFCB01BA010E949823AB0114
:10081000BC01980188E895E00E94392ADECFC1101A
:1008200006C0950188E895E00E94BF2BD6CFCB018A
:10083000BA010E949823AB01BC01980188E895E0B9
:100840000E94942ACACFF1100BC0269DA001279DBB
:10085000500D369D500D1124B20185E296E04DCE2B
:1008600085E296E00E94DE29E11015C0640C751C3B
:100870004614570409F425CEF20161912F01F1E0ED
:10088000A80185E296E0FF1203C00E94B02AF0CFD3
:100890000E94B62AEDCF81E0E81215C091E0691AF6
:1008A000710808F40ECEF201619171912F01F1E00F
:1008B000A80185E296E0FF1203C00E94C62AEECF8F
:1008C0000E94CB2AEBCF82E0E81217C091E0691AB0
:1008D000710808F4F6CDF201419151916191719145
:1008E0002F01F1E0980185E296E0FF1203C00E941B
:1008F000A42AECCF0E94DB2AE9CF83E0E81218C0DB
:10090000640C751C6414750409F4DBCDF20161916B
:100910002F01062E000C770BF1E0A80185E296E08E
:10092000FF1203C00E947E2AEDCF0E94842AEACFE4
:1009300084E0E81215C091E0691A710808F4C1CD8D
:10094000F201619171912F01F1E0A80185E296E039
:10095000FF1203C00E947E2AEECF0E94842AEBCFB2
:1009600085E0E81217C091E0691A710808F4A9CD72
:10097000F20141915191619171912F01F1E0980142
:1009800085E296E0FF1203C00E94392AECCF0E9454
:10099000942AE9CF86E0E81294CDB12C91E0691A4F
:1009A000710808F48ECDF2014191519161917191DC
:1009B0002F01F1E0FF1214C0C11006C0950185E2BD
:1009C00096E00E94BE2BEACFCB01BA010E94982389
:1009D000AB01BC01980185E296E00E94392ADECF86
:1009E000C11006C0950185E296E00E94BF2BD6CFCC
:1009F000CB01BA010E949823AB01BC01980185E2AA
:100A000096E00E94942ACACFF1100BC0269DA00147
:100A1000279D500D369D500D1124B20182EC96E0B9
:100A20006CCD82EC96E00E94DE29E11015C0640CCA
:100A3000751C6414750409F444CDF20161912F0111
:100A4000F1E0A80182EC96E0FF1203C00E94B02AF8
:100A5000F0CF0E94B62AEDCF81E0E81215C091E0F8
:100A6000691A710808F42DCDF201619171912F017D
:100A7000F1E0A80182EC96E0FF1203C00E94C62AB2
:100A8000EECF0E94CB2AEBCF82E0E81217C091E0B4
:100A9000691A710808F415CDF201419151916191E3
:100AA00071912F01F1E0980182EC96E0FF1203C0F2
:100AB0000E94A42AECCF0E94DB2AE9CF83E0E8124F
:100AC00018C0640C751C6414750409F4FACCF201A6
:100AD00061912F01062E000C770BF1E0A80182EC4A
:100AE00096E0FF1203C00E947E2AEDCF0E94842A66
:100AF000EACF84E0E81215C091E0691A710808F4A1
:100B0000E0CCF201619171912F01F1E0A80182EC3A
:100B100096E0FF1203C00E947E2AEECF0E94842A34
:100B2000EBCF85E0E81217C091E0691A710808F46C
:100B3000C8CCF20141915191619171912F01F1E085
:100B4000980182EC96E0FF1203C00E94392AECCF94
:100B50000E94942AE9CF86E0E812B3CCB12C91E050
:100B6000691A710808F4ADCCF2014191519161917B
:100B700071912F01F1E0FF1214C0C11006C0950160
:100B800082EC96E00E94BE2BEACFCB01BA010E9414
:100B90009823AB01BC01980182EC96E00E94392AAF
:100BA000DECFC11006C0950182EC96E00E94BF2BFB
:100BB000D6CFCB01BA010E949823AB01BC019801AA
:100BC00082EC96E00E94942ACACFCF92DF92EF92F5
:100BD000FF926B017C019F7720E030E040E859E50F
:100BE0000E94942387FF2BC020E030E040E05FE3C9
:100BF000C701B6010E94CE2487FD0EC020E030E080
:100C000040E05FE3C701B6010E941D23FF90EF9013
:100C1000DF90CF900C94062420E030E040E05FEBC2
:100C2000C701B6010E94CE24181684F420E030E0FB
:100C3000A901C701B6010E94D2246B017C01C70142
:100C4000B601FF90EF90DF90CF90089520E030E064
:100C500040E05FE3C701B6010E941C23FF90EF90C4
:100C6000DF90CF900C9481234F925F926F927F928E
:100C70008F929F92AF92BF92CF92DF92EF92FF92AC
:100C80000F93CF93DF93CDB7DEB76A970FB6F89483
:100C9000DEBF0FBECDBFC0909202D0909302E09015
:100CA0009402F0909502A7019601609165077091FA
:100CB000660780916707909168070E9494238823B4
:100CC00041F0C0926507D0926607E0926707F09204
:100CD00068078091960290919702A0919802B09136
:100CE00099028E879F87A88BB98B80919A029091E9
:100CF0009B02A0919C02B0919D028A8B9B8BAC8B36
:100D0000BD8B80919E0290919F02A091A002B09114
:100D1000A1028E8B9F8BA88FB98FABEBB2E0FE0147
:100D200031964F018D91819382E0A83CB807D1F7AD
:100D30006091790770917A0780917B0790917C0789
:100D40000E949D23C62E6091710770917207809159
:100D50007307909174070E949D23E62E609175079A
:100D60007091760780917707909178070E949D2374
:100D7000062F60916D0770916E0780916F079091BB
:100D800070070E949D23F62E6091690770916A0793
:100D900080916B0790916C070E949D23862F95E0B0
:100DA000A92E2F2D43E050E0BE01625F7F4F54DB40
:100DB000C0908E02D0908F02E0909002F09091024D
:100DC000A70196016091850770918607809187073A
:100DD000909188070E949423882341F0C092850750
:100DE000D0928607E0928707F09288076091890782
:100DF00070918A079E01265E3F4FAE01425F5F4FB2
:100E000081E08BDA81E090E00E94FA1540911604AF
:100E100050911704609118047091190490E080E0DB
:100E20000E94F6158090260490902704A090280434
:100E3000B090290420E030E040E85FEBC501B40148
:100E40000E949423882331F1C0901604D090170497
:100E5000E0901804F0901904A7019601C501B401AF
:100E60000E941C234B015C0120E030E040E054E391
:100E7000C701B6010E94D2249B01AC01C501B40197
:100E80000E94CE24181634F086EA92E09093010472
:100E90008093000480912A04882331F086EA92E04E
:100EA0009093010480930004C0901A04D0901B0416
:100EB000E0901C04F0901D048FEFC81AD80AE80ACD
:100EC000F80AC0921A04D0921B04E0921C04F0921B
:100ED0001D04C114D104E104F10499F480911E04AD
:100EE00090911F04A0912004B09121040196A11DAE
:100EF000B11D80931E0490931F04A0932004B0930F
:100F000021048090220490902304A0902404B090A7
:100F1000250460911E0470911F048091200490911B
:100F200021040E94C923A50194010E94D22420E03B
:100F300030E040E85FE40E94D2242B013C01C7016D
:100F4000B6010E94C923A50194010E94D2249B01ED
:100F5000AC01C301B2010E941D236093160470937B
:100F6000170480931804909319046A960FB6F894A6
:100F7000DEBF0FBECDBFDF91CF910F91FF90EF90FD
:100F8000DF90CF90BF90AF909F908F907F906F90A9
:100F90005F904F900895CF92DF92EF92FF92CF93A0
:100FA000E0E0F4E08BE2DF011D928A95E9F780E052
:100FB00090E0A0E8BFEB8093260490932704A093D1
:100FC0002804B09329048DEC9CECACECBDE3809339
:100FD000220490932304A0932404B093250484E670
:100FE00093EAA8E9B9EC8093040490930504A093D4
:100FF0000604B09307048BED95E9A3E5B2EE809368
:10100000080490930904A0930A04B0930B0482E2AD
:1010100097E4A1EBBFE580930C0490930D04A0939B
:101020000E04B0930F048EE99FEDACE5B7E5809315
:10103000100490931104A0931204B093130484EF4E
:1010400093E090930304809302048EEE93E09093D8
:10105000F5038093F4038AEB92E09093EF0380937F
:10106000EE039093F1038093F0039093F303809346
:10107000F20384E194E09093F9038093F80384E011
:1010800094E09093F7038093F60386E194E09093C5
:10109000FB038093FA03EFE5F7E082E3DF011D92A3
:1010A0008A95E9F7E4EEF3E08AE0DF011D928A9584
:1010B000E9F78AED93E0909315048093140484E19A
:1010C00090E09093DB038093DA0386E692E09093BE
:1010D000DD038093DC038EE392E09093DF03809343
:1010E000DE0382E292E09093E1038093E00386E1E5
:1010F00092E09093E3038093E20381E080938F0773
:101100008091920290919302A0919402B0919502E5
:101110008093650790936607A0936707B09368076D
:1011200081E090E0A0E0B0E08093600790936107D9
:10113000A0936207B093630780E090E0A0E8BFE36C
:101140008093690790936A07A0936B07B0936C072D
:1011500080E090E0A0E0B1E480936D0790936E078B
:10116000A0936F07B093700780E090E0A0ECB0E42C
:101170008093710790937207A0937307B0937407DD
:1011800060E070E080E89FE320DD6B017C0120E0FF
:1011900030E040E853E40E94942387FF48C020E0F9
:1011A00030E0A901C701B6010E94CE2487FD41C0ED
:1011B000C701B6010E949D23862F2FD9C1E0C0939D
:1011C000640710927F07C093900780918E029091E0
:1011D0008F02A0919002B091910280938507909325
:1011E0008607A0938707B093880781E090E0A0E08E
:1011F000B0E08093800790938107A0938207B0931B
:10120000830784E090E090938C0780938B078CE0B9
:1012100090E090938A078093890781E0FED8C0937D
:101220008407CF91FF90EF90DF90CF9008958FEFDC
:10123000C4CF80E0C2CF80915F07811103C081E0FD
:1012400080935F0780917F07811103C081E08093C5
:101250007F070895EF92FF920F931F93CF93DF9331
:10126000EA01F901DC011496ED90FC9015971296B5
:101270004D915C9113974E0D5F1D28813981189611
:101280000D911C9119970217130730F00D911C91C5
:101290001197012B09F441C08A01021B130BDC01D9
:1012A00018968D919C918E199F09800F911F86171A
:1012B0009707DCF1C901860F971F8417950778F40B
:1012C000718360833383228315821482178216828E
:1012D00088819981680F791F7983688316C011838B
:1012E000008333832283601B710B7583648390E0DA
:1012F00080E01616170614F49E2D8F2D9683878393
:10130000D701A60FB71FB983A88380E0DF91CF91E3
:101310001F910F91FF90EF90089518968D919C91D9
:10132000821B930B861797075CF681E0EFCFCF9275
:10133000DF92EF92FF92CF93DF936B0184E4869F5D
:10134000E001879FD00D1124C55DDB4F8AA99BA9C1
:10135000009721F00E949D2D1BAA1AAA84E48C9D5F
:10136000F0018D9DF00D1124E55DFB4F86A997A935
:10137000009711F00E949D2D84E48C9DF0018D9DBD
:10138000F00D1124E55DFB4F138A128A168A178A25
:10139000108E118E128E138E148E158E168E178E41
:1013A00010A211A281E090E093A382A315A214A23F
:1013B00016A217A210A611A613A612A615A614A669
:1013C00016A617A610AA11AA13AA12AA15AA14AA39
:1013D00017AA16AA11AE10AE12AE13AE14AE15AE09
:1013E000DF01DE961D921D921D921C921397EE5BFB
:1013F000FF4F11821082DF91CF91FF90EF90DF902D
:10140000CF900895CF93DF93FB01DC016D917C9128
:10141000DB011696CD91DC918081918123E0880FCC
:10142000991F2A95E1F7AA81BB81A80FB91F8D9159
:101430009C91119724853585220F331FEB016A811A
:101440007B81EB01C20FD31F0990D881C02D149668
:101450002D913C9161E070E0232B11F062E070E08F
:10146000C69F9001C79F300DD69F300D1124A085D7
:10147000B1852A9FB0012B9F700D3A9F700D1124EA
:10148000A481B5812A9FF0012B9FF00D3A9FF00DAA
:1014900011248E0F9F1FFA019183808373836283CF
:1014A000DF91CF9108952F923F924F925F926F926A
:1014B0007F928F929F92AF92BF92CF92DF92EF92E4
:1014C000FF920F931F93CF93DF9300D000D0CDB73F
:1014D000DEB7DC011496ED91FC910190F081E02DD6
:1014E000808591859A838983A281B381BC83AB83F4
:1014F000FB0181909190A190B190C12CD12C7601EB
:10150000C814D904EA04FB04CCF026960FB6F8946C
:10151000DEBF0FBECDBFDF91CF911F910F91FF9026
:10152000EF90DF90CF90BF90AF909F908F907F9083
:101530006F905F904F903F902F900895448055801A
:10154000668077804085518562857385CF0140969E
:101550009E838D83A081B1819D0183E0220F331F83
:101560008A95E1F7A981BA8112968D919C91D90152
:10157000A80FB91F2D903C9011970484F585E02D9C
:10158000EE0FFF1F8B819C81E80FF91F0190F08106
:10159000E02D14968D919C91892B41F581E090E08E
:1015A000E89F9001E99F300DF89F300D1124249F92
:1015B0008001259F100D349F100D1124249DC00122
:1015C000259D900D349D900D1124A8016D817E8183
:1015D000820D931D0E94262EED81FE81E00FF11FEA
:1015E0009FEFC91AD90AE90AF90A8ACF82E090E086
:1015F000D7CFCF93DF93DB01AE55BD4F2C91222384
:1016000069F024E4269FF001279FF00D1124E55D89
:10161000FB4FEF0119922A95E9F71C9224E4269FCB
:10162000F001279FF00D1124E55DFB4F1482158218
:10163000168217821186108613861286118A108AE6
:1016400017861686DF91CF9172CE2F923F924F92DE
:101650005F926F927F928F929F92AF92BF92CF9242
:10166000DF92EF92FF920F931F93CF93DF9300D0FF
:1016700000D01F921F92CDB7DEB724E4269FF00161
:10168000279FF00D1124E55DFB4F04811581268114
:101690003781012B022B032B09F4B7C02A016B0100
:1016A0007C0110E000E0812C912C54013F019F014E
:1016B000285F3F4F3C832B83CF0104969E838D830D
:1016C000AB81BC818D919C91ED81FE8140815181E6
:1016D0006281738184169506A606B706E4F10E941E
:1016E0009D2DD3011A968D919C91892B09F07EC076
:1016F00084E48C9DD0018D9DB00D1124A55DBB4F60
:10170000BC83AB8350968D919C910E949D2DEB8163
:10171000FC81868597850E949D2DC701B60107DE55
:10172000C701B60128960FB6F894DEBF0FBECDBF35
:10173000DF91CF911F910F91FF90EF90DF90CF90AD
:10174000BF90AF909F908F907F906F905F904F90E1
:101750003F902F904ECFFC01E00FF11F92819983B3
:10176000A381AA839F83A887312C212C24143504BC
:1017700064F089819A810E949D2DEFEF8E1A9E0A56
:10178000AE0ABE0A0C5F1F4F9BCFAF81B885ED91AB
:10179000FD91B887AF83309759F0848195810E947D
:1017A0009D2DEF81F8853297808191810E949D2D3A
:1017B000BFEF2B1A3B0ADACF800F911FFC01848107
:1017C00095810E949D2D2B813C812F5F3F4F3C8353
:1017D0002B83025F1F4FF501808191812B813C811A
:1017E000241535054CF30E949D2D82CF10E000E0BA
:1017F0001C821B8224E42C9DC0012D9D900D112480
:10180000DC01AB5CBB4F5D01E6CF28960FB6F894C8
:10181000DEBF0FBECDBFDF91CF911F910F91FF9023
:10182000EF90DF90CF90BF90AF909F908F907F9080
:101830006F905F904F903F902F90089524E4269FE3
:10184000F001279FF00D1124E55DFB4F82899389FC
:101850000497029758F485E090E0938B828B8FEF8A
:101860009FEFDC01828F938FA48FB58F08952F9205
:101870003F924F925F926F927F928F929F92AF9220
:10188000BF92CF92DF92EF92FF920F931F93CF936D
:10189000DF93CDB7DEB7AA970FB6F894DEBF0FBEC1
:1018A000CDBF9AA389A37E8B6D8B1A01098B1A8BEE
:1018B0002B8B3C8B84E429893A89829F6001839F2A
:1018C000D00C11248601055D1B4F89899A89AB894B
:1018D000BC89F80180839183A283B383AB01BC01EF
:1018E000CD01B3DED601A15DBB4F84E0F1010190D3
:1018F0000D928A95E1F7F4E02F0E311C64E070E060
:10190000D80114968D919C910E94E72CF801918743
:101910008087892B09F0F5C04D895E8969897A89AC
:101920008B899C8992DE81E0AA960FB6F894DEBF7F
:101930000FBECDBFDF91CF911F910F91FF90EF9020
:10194000DF90CF90BF90AF909F908F907F906F90DF
:101950005F904F903F902F900895A9A5BAA58D91C3
:101960009C91E98DFA8DE80FF91FF88FEF8BD1016B
:101970008D919C91880F991FA9A1BAA1ED91FC911D
:10198000E80FF91F80819181EF89F88D9183808321
:10199000D10114962D913D914D915C9117972BA3F8
:1019A0003CA34DA35EA362E070E08D899E890E94F6
:1019B000E72CEF89F88D93838283892B09F4ACCFD0
:1019C000F8E02F0E311C412C512C32012BA13CA1EF
:1019D0004DA15EA142165306640675069CF02B8D40
:1019E0003C8D4D8D5E8D2F5F3F4F4F4F5F4F2B8F47
:1019F0003C8F4D8F5E8F498D5A8D4C5F5F4F5A8F54
:101A0000498F90C0610124E0C20ED11CD101ED903C
:101A1000FC90EE0CFF1CEF89F88D82819381E80E1B
:101A2000F91E68E070E081E090E00E94E72C8C01F4
:101A3000D7018D939C93892B09F46ECF84E0F60136
:101A4000D80101900D928A95E1F7B8E02B0E311C78
:101A5000F80180819181A281B381181619061A06B6
:101A60001B06DCF464E070E00E94E72CD8011596B8
:101A70009C938E931497892B09F44ECFD12CC12CB3
:101A8000812C912C5401F80180819181A281B38134
:101A900088169906AA06BB0634F0FFEF4F1A5F0AB4
:101AA0006F0A7F0A93CFF801E480F580EC0CFD1CEF
:101AB00080E1F101DE01119601900D928A95E1F726
:101AC000F0E12F0E311CA701BE016F5F7F4FA9A16E
:101AD000BAA114968D919C9195DCF801868197812D
:101AE000D70112962D913C91820F931F9783868385
:101AF000BFEF8B1A9B0AAB0ABB0AE4E0CE0ED11CE7
:101B0000C2CF1A8E198E1B8E1C8E1D8E1E8E18A390
:101B10000F8FA8014C5F5F4F58A74FA3C8010896CD
:101B20009AA789A7EFA1F8A580819181A281B381AD
:101B30002B8D3C8D4D8D5E8D281739074A075B072D
:101B40000CF40BCF6EE070E08D899E890E94E72C2B
:101B5000AF8DB8A11B969C938E931A97B12CA12C94
:101B6000D12CC12CF12CE12C24E4E989FA892E9F97
:101B7000C0012F9F900D11249C012B5C3B4F388F8F
:101B80002F8B88248394912C4D895E89C416D506A9
:101B900054F184E4A989BA898A9F80018B9F100D32
:101BA0001124055D1B4FF80115861486C70133E02B
:101BB000880F991F3A95E1F70E94012DD80151969F
:101BC0009C938E935097892B09F4A6CEC701880F5A
:101BD000991F0E94012DF80197878687892B09F4A8
:101BE0009BCE80E0A1CED1014D905D906D907D9017
:101BF0001D0177FC91CEEF89F88D008111810A0DCE
:101C00001B1DD80111969C928E92411451046104BF
:101C1000710429F1C2010E94012DF801958384838A
:101C2000892B09F479CEF80153824282848195810F
:101C300097838683918780871386128681E090E060
:101C400045284628472811F490E080E0E80EF91E68
:101C5000FFEFCF1ADF0A2EE0A20EB11C95CF15962A
:101C60001C921E921497DFCF2F923F924F925F9259
:101C70006F927F928F929F92AF92BF92CF92DF929C
:101C8000EF92FF920F931F93CF93DF93CDB7DEB701
:101C90006A970FB6F894DEBF0FBECDBF9E8B8D8BBB
:101CA00049015A0184E4829F7001839FF00C112442
:101CB0009701255D3B4F6901FB0180819181F9010D
:101CC000958B848BD701AF5BBB4FFB01349684E0CF
:101CD00001900D928A95E1F7D701AB5BBB4FFB01F9
:101CE000389684E001900D928A95E1F7D701A75BC1
:101CF000BB4FFB013C9684E001900D928A95E1F781
:101D0000D701A75ABB4FFB01709684E001900D925A
:101D10008A95E1F78B010C5E1F4FF90186A597A507
:101D2000A0A9B1A918161906DCF5880F991F880F0C
:101D3000991F0E94012DF60193AB82AB892B09F408
:101D4000D3C0312C212C412C512C32019601225D23
:101D50003F4F388F2F8BC601C2969A8F898FF4968A
:101D6000FC8BEB8BB301A2012FEF421A520A620ADD
:101D7000720AEF89F88D80819181A281B381481721
:101D800059076A077B070CF47BC0F60184A995A963
:101D90000E94012DF60197AB86AB892B09F4A4C0F4
:101DA000F80180819181A281B38124E4289DF00112
:101DB000299DF00D1124E55DFB4FAC01BD014D7F68
:101DC00021E030E0452B462B472B11F030E020E09E
:101DD00033A322A324E4289DF001299DF00D1124B2
:101DE000E55DFB4F0197A109B10921E030E00297C1
:101DF000A105B10510F030E020E035A324A3D70100
:101E0000AF5ABB4FF801349684E001900D928A9549
:101E1000E1F784E4889DF001899DF00D1124E55DD2
:101E2000FB4F868D978DA0A1B1A1B7FF58C0B0958B
:101E3000A095909581959F4FAF4FBF4F82AF93AFC5
:101E4000A4AFB5AF168E178E10A211A280E06A96CD
:101E50000FB6F894DEBF0FBECDBFDF91CF911F91BB
:101E60000F91FF90EF90DF90CF90BF90AF909F9039
:101E70008F907F906F905F904F903F902F9008953C
:101E8000E98DFA8D808191819C01220D331D3A8B61
:101E9000298B80E1F801DE01119601900D928A955F
:101EA000E1F7005F1F4F49895A89BE016F5F7F4F7D
:101EB000ED89FE8984819581A5DAEB89FC89808191
:101EC0009181E989FA8922813381820F931FEB89FD
:101ED000FC8991838083F4E02F0E311C43CF12AE36
:101EE00013AE14AE15AEB2CFC501B40120DA81E055
:101EF000AECFCF92DF92EF92FF92CF93DF9310920B
:101F0000B30424E4269FF001279FF00D1124E55D22
:101F1000FB4F15A614A630E020E0D12CC12CDF0128
:101F20001A96C1E0D0E0C416D506F4F024E4269F4A
:101F3000F001279FF00D1124E55DFB4F13A612A6BB
:101F400011AE10AEDF01DE961D921D921D921C9205
:101F5000139782E090E0938B828BDF91CF91FF907B
:101F6000EF90DF90CF900895ED91FC911197E20FE3
:101F7000F31FE280F3801E141F0454F4E480F58004
:101F8000F782E682F186E08613861286D183C083CB
:101F9000EFEFCE1ADE0A225F3F4FC5CF24E4269F23
:101FA000F001279FF00D1124E55DFB4F138A128A83
:101FB0004CCB24E4269FF001279FF00D1124E55D12
:101FC000FB4F8289938981309105C8F08530910556
:101FD00018F0059769F008958FEF9FEFDC01828F6D
:101FE000938FA48FB58F85E090E0938B828B0895BB
:101FF0008FEF9FEFDC01828F938FA48FB58F0895B1
:1020000024E4249FD001259FB00D1124A55DBB4F72
:102010002EE0AC01249FC001259F900D11241A963B
:10202000ED91FC91E80FF91F81E08093B304828564
:10203000938591878087408551852681378181E00E
:1020400090E04217530711F090E080E09183808385
:1020500008952F923F924F925F926F927F928F924C
:102060009F92AF92BF92CF92DF92EF92FF920F9327
:102070001F93CF93DF93CDB7DEB7C055D1090FB60D
:10208000F894DEBF0FBECDBF9EAF8DAF4BA75CA750
:102090006DA77EA76801790184E4809FF001819F8C
:1020A000F00D1124E55DFB4F2285338523963FAF6C
:1020B0002EAF239782899389029761F486A597A50D
:1020C000A0A9B1A9892B8A2B8B2BC9F584E090E0BC
:1020D000938B828B84E48C9DF0018D9DF00D1124F7
:1020E000E55DFB4F828993898230910509F037C203
:1020F00082AD93ADA4ADB5AD22242394312C181636
:1021000019061A061B060CF42FC2C05BDF4F0FB670
:10211000F894DEBF0FBECDBFDF91CF911F910F911D
:10212000FF90EF90DF90CF90BF90AF909F908F90F7
:102130007F906F905F904F903F902F90089584898B
:1021400095894DAD5EAD8417950721F606A917A9AF
:1021500018AE1FAA1BAA1CAA1DAA1EAA1F01CF01E6
:102160008E9627969FAF8EAF2797DF01D29629963E
:10217000BFAFAEAF2997F8962B96FFAFEEAF2B9778
:1021800091012A5D3F4F2D963FAF2EAF2D97A101B4
:102190004E5D5F4F2F965FAF4EAF2F970A976196B8
:1021A0009FAF8EAF61972796EEADFFAD27978081E9
:1021B0009181A281B3812BA93CA94DA95EA92817C1
:1021C00039074A075B0744F081E090E0D101D996D6
:1021D0009C938E93D8977ECF2996AEADBFAD2997AD
:1021E000ED91FC912FA938ADE20FF31F428153818D
:1021F0005AAF49AF50815FAF818121968FAF219750
:102200002B96AEADBFAD2B978D919C91892B21F173
:102210002D96EEADFFAD2D9780809180A280B3808A
:102220001AAB09AB5FA72196FFAD2197F8AB29AD9B
:102230003AAD369527953695279525963FAF2EAF23
:1022400025971CAE1BAE2596AEADBFAD2597EBAD69
:10225000FCADEA17FB070CF149AD5AAD6FAD219605
:102260007FAD2197C8010E94262E89AD9AAD8C7F43
:10227000080F191F2BA93CA94DA95EA92F5F3F4F3D
:102280004F4F5F4F2BAB3CAB4DAB5EAB4FA958AD47
:102290004C5F5F4F58AF4FAB86CF2F96AEADBFAD03
:1022A0002F978D919C91892B71F1EFA5F8A9408012
:1022B000518062807380A3019201C501B4010E9424
:1022C0009423181664F0A9A9BAA92D913D914D91B6
:1022D0005C91C501B4010E94CE241816BCF1A30183
:1022E0009201C501B4010E94942387FF0CC0E9A9A3
:1022F000FAA92081318142815381C501B4010E9434
:102300009423882319F16196AEADBFAD61978D918D
:102310009C91892B09F445C0EFA5F8A94080518014
:1023200062807380A3019201C501B4010E94CE2492
:1023300018161CF5A9A9BAA92D913D914D915C9152
:10234000C501B4010E94942318165CF184E48C9DAD
:10235000F0018D9DF00D1124E55DFB4F868D978D6D
:10236000A0A1B1A1892B8A2B8B2B69F183E090E08E
:10237000938B828B81E090E02CC0A3019201C50178
:10238000B4010E94942381110CC0E9A9FAA920810B
:10239000318142815381C501B4010E94942387FD9C
:1023A000D5CF2BAD3CAD2F5F3F4F3CAF2BAF49A9F5
:1023B0005AA94C5F5F4F5AAB49AB8FA598A90496B9
:1023C00098AB8FA740CF84E090E0938B828B86AD53
:1023D00097AD93A782A77ECEEBADFCAD80819181B6
:1023E000F401EE0FFF1FEE0FFF1FE80FF91FA08192
:1023F000B1818C9181110AC0FFEF8F1A9F0AAF0A39
:10240000BF0A8DA29EA2AFA2B8A68FC18330A1F34E
:102410000280F381E02D2FA938ADE20FF31F8081F8
:1024200091819AAB89AB892B39F34F5F5F4F6F4F27
:102430007F4F49875A876B877C879E01235E3F4F7A
:10244000AE01475D5F4F64E070E0C8010E942A0959
:102450008111D0C18D819E81AF81B8850496A11D67
:10246000B11D8D839E83AF83B8874D8D5E8DBE0178
:102470006B5D7F4F8F8D98A10E94262E8BA19CA112
:10248000009761F06D8D7E8DA5E2B0E0AC0FBD1FB1
:102490006A0F7B1F49A15AA10E94262E1CAA1BAAC3
:1024A000412C512C3201E9A9FAA980819181A281A4
:1024B000B381481659066A067B060CF09DCFE9A940
:1024C000FAA9848195812BA93CA9280F391F38AB23
:1024D0002FA7D90112966D917C919E01235E3F4FEB
:1024E000AE01475D5F4FC8010E942A09811182C178
:1024F000EFA5F8A982819381092E000CAA0BBB0BD2
:102500004D815E816F817885840F951FA61FB71F4F
:102510008D839E83AF83B887608171814D8D5E8D81
:102520008F8D98A10E94262E8BA19CA1009761F00F
:10253000AFA5B8A96D917C912D8D3E8D620F731F53
:1025400049A15AA10E94262EBFEF4B1A5B0A6B0AC3
:102550007B0AEBA9FCA93496FCABEBABA4CF312CE6
:10256000212C049709F0D1CD8EE0EDADFEAD8E9F0C
:1025700080018F9F100D112423962EAD3FAD239720
:10258000020F131FD80112964D915C9113974115BC
:10259000510509F4BACD16968D919C919AA789A7F9
:1025A00080E1FE013196DF011D928A95E9F7C98A23
:1025B000DA8AEB8AFC8A2114310409F458C084E4D5
:1025C0008C9DF0018D9DF00D1124E55DFB4FDF0129
:1025D000DE968D909D90AD90BC9082AD93ADA4ADF4
:1025E000B5AD88169906AA06BB0609F040C0F801E9
:1025F000848195810084F185E02D349624E0DE010C
:10260000559601900D922A95E1F72D893E89285F14
:102610003F4F3E8B2D8BD80118966D917C91199769
:10262000260F371F19963C932E93189718962D91C5
:102630003C911997480F591F241B350B37FD06C0D5
:10264000820F931F19969C938E93189784E48C9D08
:10265000F0018D9DF00D1124E759FB4FB1E08B1A6D
:102660009108A108B10880829182A282B3829E0162
:102670002B5E3F4FAE01475D5F4F64E170E0C801E4
:102680000E942A098111B6C08CE090E0A0E0B0E081
:102690008D839E83AF83B8879E01235E3F4FAE013B
:1026A000475D5F4F64E070E0C8010E942A09811114
:1026B000A1C080E190E0A0E0B0E08D839E83AF8375
:1026C000B8874D8D5E8DBE01655D7F4F8F8D98A162
:1026D0000E94262E8BA19CA1009761F06D8D7E8DAE
:1026E000EBE2F0E0EC0FFD1F6E0F7F1F49A15AA136
:1026F0000E94262E1DA21EA21FA218A62DAD3EAD21
:10270000220F331F38AF2FAB24E42C9DC0012D9D29
:10271000900D1124855D9B4FAC014C5F5F4F5AAF0C
:1027200049AFDC011896BCAFABAF8DA09EA0AFA0A7
:10273000B8A449855A856B857C85E9ADFAAD808161
:102740009181A281B38188169906AA06BB060CF472
:1027500043CE452B462B472B09F4D7CC8AE190E09A
:10276000A0E0B0E089839A83AB83BC832DAD3EADFE
:10277000C901330FAA0BBB0B8D879E87AF87B88B20
:102780004D895E89BE016F5F7F4F8F89988D0E9452
:10279000262E8B8D9C8D009761F06D897E8941E09E
:1027A00050E04C0F5D1F640F751F498D5A8D0E94BC
:1027B000262E89A59AA5D80117969C938E931697D5
:1027C00011961C921E92232809F49FCC84E48C9DC0
:1027D000F0018D9DF00D1124E759FB4F808191810F
:1027E000A281B3810196A11DB11D80839183A28333
:1027F000B3838BCC232809F088CC84E48C9DF00132
:102800008D9DF00D1124E55DFB4F81E090E095A7D3
:1028100084A785E090E0938B828B77CCCF92DF9278
:10282000EF92FF920F931F9324E4269FF001279FBE
:10283000F00D1124E55DFB4F228933892115310507
:1028400009F452C06B017C0121303105B1F482A53D
:1028500093A59C012F5F3F4F33A722A7092E000CA1
:10286000AA0BBB0B028D138D248D358D801791071C
:10287000A207B307C9F5C7013CDB84E48C9DF001D6
:102880008D9DF00D1124E55DFB4F8289938903979F
:1028900059F582A593A59C012F5F3F4F33A722A72F
:1028A000092E000CAA0BBB0B468D578D60A171A1A0
:1028B00084179507A607B707BCF086AD97AD93A719
:1028C00082A784E090E0938B828B82AD93ADA4AD20
:1028D000B5AD181619061A061B0634F4EE5BFF4F49
:1028E00081E090E0918380831F910F91FF90EF90A2
:1028F000DF90CF90089524E4269FF001279FF00DEC
:102900001124E55DFB4F828993890497B1F482A578
:1029100093A5019693A782A7092E000CAA0BBB0BC7
:1029200046895789608D718D84179507A607B7076B
:1029300021F485E090E0938B828B08952F923F9253
:102940004F925F926F927F928F929F92AF92BF92BF
:10295000CF92DF92EF92FF920F931F93CF93DF936B
:10296000CDB7DEB72E970FB6F894DEBF0FBECDBF42
:10297000DC0149835A836B837C83290184E4849F2F
:10298000F001859FF00D1124E55DFB4F228833880F
:10299000C1010497029708F0D5C011961C921E92AF
:1029A00013961C921E92129715861486912C812CD8
:1029B00090E080E08F019F01205F3F4F38872F8399
:1029C0003F013CE0630E711CBF01625F7F4F7A875D
:1029D00069873A96FC87EB87EF81F8852081318102
:1029E000F30140815181E985FA85A080B180841589
:1029F00095050CF445C011965C934E9313963C9349
:102A00002E9312971596BC92AE921497452BF9F41B
:102A1000F5E02F163104D9F41092B304F801828D39
:102A2000938DA48DB58DAE014F5F5F4F64E070E074
:102A30008F3F9F4FAF4FBF4F09F079C080E290E0CA
:102A4000F6D469817A818B819C81A201A7DA2E96C6
:102A50000FB6F894DEBF0FBECDBFDF91CF911F91AF
:102A60000F91FF90EF90DF90CF90BF90AF909F902D
:102A70008F907F906F905F904F903F902F90089530
:102A8000EB85FC8560817181FB01E80DF91DFE87F6
:102A9000ED8760817181672B89F5E084F184628123
:102AA00073817E836D83668177816A01E3E0CC0C5C
:102AB000DD1CEA95E1F72C0D3D1D440F551F4A0D15
:102AC0005B1DFA0191838083F301408151814F5F47
:102AD0005F4F51834083F901F382E282ED85FE85E9
:102AE00073876287E616F70670F46E197F09F9019D
:102AF0007183608315821482178216820196FEE02C
:102B00008F0E911C69CFED85FE85C480D5804D81E7
:102B10005E814C0D5D1D4E195F09F90151834083A3
:102B20006C197D0975836483D782C682E7CF8FE1F4
:102B300090E07DD4F80113A612A681E090E0938B7B
:102B4000828B85CF1586148611961C921E92139641
:102B50001C921E9212977BCFEF92FF920F931F93BE
:102B6000CF93DF937C018B01EA013DD581111BC01E
:102B70008091A4029091A5020497F9F4DF91CF917E
:102B80001F910F91FF90EF90089528ED38EB45E0ED
:102B900050E060E070E0CB01DCD7AE01B801C701C6
:102BA000E6D7C801AFD78091B4049091B504892BC2
:102BB000F9F68881882349F3DBCF83E090E0909396
:102BC000A5028093A402DACFCF93DF932091A402D1
:102BD0003091A5022430310531F0EB01C8D7CE0188
:102BE000DF91CF918FC7DF91CF9108950C94B521DC
:102BF0000C94AA210C94982195C70C943C2108951B
:102C000070E060E090E080E0C9C40895AF92BF92A8
:102C1000CF92DF92EF92FF920F931F93CF93DF93A8
:102C20001F921F92CDB7DEB75C018B0169017A015B
:102C300090E080E0C114D104E104F10469F40F9044
:102C40000F90DF91CF911F910F91FF90EF90DF9048
:102C5000CF90BF90AF9008959C2D8D2DC114D104BD
:102C600021E0E206F10410F09FEF8FEF9E012F5F4D
:102C70003F4F492F582FB801C5010E943E228F3F78
:102C80009807E9F229813A81C21AD30AE108F108CA
:102C9000020F131FCFCF40E855E260E070E090E0F4
:102CA00080E000C08130910579F01CF4892B39F067
:102CB00008958230910561F0039771F0089526E040
:102CC0008BEE94E00C94122726E088E895E0FACF8A
:102CD00026E085E296E0F6CF26E082EC96E0F2CFA1
:102CE0001F920F920FB60F9211240BB60F922F93D3
:102CF0003F934F935F936F937F938F939F93AF9384
:102D0000BF93EF93FF9386E997EE9093250180930D
:102D100024010E947722FF91EF91BF91AF919F9183
:102D20008F917F916F915F914F913F912F910F9074
:102D30000BBE0F900FBE0F901F90189586E997EE6F
:102D40009093250180932401A3E7B0E08C918E7FBE
:102D50008C93E0E2F1E080818C7F8083E1E2F1E01E
:102D60008081877E808380818460808380818C7F66
:102D700080838C9181608C93089581E008958F9277
:102D80009F92AF92BF92CF92DF92EF92FF920F93FA
:102D90001F93CF93DF935C017B018A01C1E0D0E0F8
:102DA000CE15DF05CCF081E0F5018083B801C701C5
:102DB0000E94DF21F5019283818390E080E0DF9122
:102DC000CF911F910F91FF90EF90DF90CF90BF9028
:102DD000AF909F908F9008956E018FEFC81AD80A18
:102DE000FE01EE0FFF1FE00FF11F80809180811424
:102DF000910469F06FE673E0C4010E94362E892BBE
:102E000041F4CC0FDD1FC00FD11F19821882E601DB
:102E1000C7CF62E773E0C4010E94362E892BB9F751
:102E2000EC14FD04A1F36E01E2E0CE0ED11CCC0F38
:102E3000DD1FC00FD11F198218821B821A82E7CFB3
:102E400086EB94E0089580E008950F931F93CF934D
:102E5000DF938B01BA01E901198218829801012ED2
:102E6000000C440B550BFC0181819281CFDE019651
:102E700041F01983088380E0DF91CF911F910F917A
:102E8000089581E0F9CF0F931F93CF93DF931F92A3
:102E90001F92CDB7DEB7FB018A01B9019E012F5FFA
:102EA0003F4FAF01FC01818192810E94F321019685
:102EB00069F089819A81F8019183808380E00F9085
:102EC0000F90DF91CF911F910F91089581E0F7CF7F
:102ED000FC01808108950895089581E0FB018083BD
:102EE00080E0089508951092DE040895FC01818128
:102EF00092810C94D721CF93DF9300D000D000D0E3
:102F00001F92CDB7DEB7B0E0A0E089839A83AB8390
:102F1000BC83CB01770FAA0BBB0B8D839E83AF8342
:102F2000B8879E01275F3F4FAE014F5F5F4F68E05C
:102F300070E08091CD049091CE0487DF811110C0A4
:102F400081E029853A852830310509F480E02A9608
:102F50000FB6F894DEBF0FBECDBFDF91CF910895BD
:102F600081E0F5CF0F931F93CF93DF931F921F92B2
:102F7000CDB7DEB78B019E012F5F3F4FAC01809133
:102F8000CD049091CE0461DF81110EC081E02981D2
:102F90003A812017310709F480E00F900F90DF91FC
:102FA000CF911F910F91089581E0F7CFCF93DF93D9
:102FB000EC011092D1041092D0041092DD04109212
:102FC000DC04AC0160E070E0CB010E94CE0FAE01EA
:102FD00061E070E080E090E00E94CE0F8091CD042F
:102FE0009091CE04DF91CF917DCF4F925F926F92FF
:102FF0007F928F929F92AF92BF92CF92DF92EF9289
:10300000FF920F931F93CF93DF931F921F92CDB721
:10301000DEB78C017C0197FF03C087E0E80EF11C4E
:1030200023E0F594E7942A95E1F7C80168E070E0A1
:103030000E94382C6C010E5F1F4F8091CB04909141
:10304000CC0480179107D4F48091C9049091CA04EC
:10305000009731F00E949D2D1092CC041092CB0469
:10306000C8010E94012D9093CA048093C904892B42
:1030700009F482C01093CC040093CB0410E000E06C
:1030800047C1412C512C3201B12CA12C95012E525B
:103090003B4FAE014F5F5F4F61E070E08091CD0428
:1030A0009091CE04F0DE811149C0EFEF4E1A5E0A16
:1030B0006E0A7E0AF0E94F16FFE55F06F1E06F0643
:1030C000710444F06091DC047091DD048DEE90E0B9
:1030D00012DFD7CF89819A81A80EB91E8AE0A8167F
:1030E000B10409F043C049E050E070E060E082EDD7
:1030F00094E00E9469226091DC047091DD048823D1
:1031000091F18091DA0490E08617970781F4BC0171
:103110008EEE90E0F0DE8091DC049091DD0401966B
:1031200099279093DD048093DC040F5F1F4F0E15E9
:103130001F050CF4A6CFCD2809F07CC090E080E0FC
:103140000F900F90DF91CF911F910F91FF90EF9013
:10315000DF90CF90BF90AF909F908F907F906F90B7
:103160005F904F9008958FEE90E0B2CFEAE0AE16F8
:10317000B1040CF48BCFDBCF10E000E0D8CF0A30E5
:10318000110531F549E050E070E060E082ED94E037
:103190000E9469226091DC047091DD048823A9F00B
:1031A0008091DA0490E08617970741F6BC018EEE15
:1031B00090E0A1DE8091DC049091DD0401969927D6
:1031C0009093DD048093DC04B9CF8FEE90E02BC0A8
:1031D0000A3011050CF0B2CF98012E523B4FAE01D0
:1031E0004F5F5F4F61E070E08091CD049091CE041D
:1031F0004ADE8111A3CF89819A81080F191FFFEF41
:10320000CF1ADF0AEF0AFF0A80E9C8168FE5D80651
:1032100081E0E806F1040CF4B2CF6091DC04709117
:10322000DD048DEE90E067DE10E000E0C12CD12CD3
:103230007601D2CFC12CD12C760110E000E0CCCFAA
:10324000412C512C3201B12CA12C480193E0880C67
:10325000991C9A95E1F72091C9043091CA04C501DF
:10326000880D991D280F391FAE014F5F5F4F61E038
:1032700070E08091CD049091CE0405DE81115ECF87
:10328000EFEF4E1A5E0A6E0A7E0A6091DC047091BE
:10329000DD048DEE90E0F0E94F16FFE55F06F1E00A
:1032A0006F0671040CF043C089819A81A80EB91E83
:1032B0008AE0A816B10409F041C049E050E0B40129
:1032C0008091C9049091CA040E9469226091DC0433
:1032D0007091DD04882349F18091C9049091CA045A
:1032E000880E991EF401808590E08617970781F477
:1032F000BC018EEE90E0FFDD8091DC049091DD0456
:10330000019699279093DD048093DC040F5F1F4F93
:103310000E151F050CF494CFC114D10409F081C01F
:103320008091C9049091CA040BCF8FEE90E0E3DD49
:10333000412C512C3201B12CA12C8DCFFAE0AF16CB
:10334000B1040CF488CFE4CF8FEE90E0D4DDF12C03
:10335000E12C812C912C540197012E523B4FAE0150
:103360004F5F5F4F61E070E08091CD049091CE049B
:103370008ADD8111E3CE8FEF881A980AA80AB80A6D
:103380006091DC047091DD048DEE90E0E0E98E1632
:10339000EFE59E06E1E0AE06B104C4F689819A81AC
:1033A000E80EF91EFAE0EF16F104A9F549E050E045
:1033B00070E060E082ED94E00E9469226091DC049C
:1033C0007091DD04882309F4BFCF8091DA0490E086
:1033D0008617970709F0A4CFBC018EEE90E08BDD35
:1033E00083E0000F111F8A95E1F78091C904909145
:1033F000CA04A60162ED74E0800F911F0E94262E80
:103400008091DC049091DD04019699279093DD046E
:103410008093DC0485CF8AE0E816F1040CF49CCF9D
:103420007FCF812C912C5401F12CE12C95CFCF92A0
:10343000DF92EF92FF920F931F93CF93DF931F9230
:10344000CDB7DEB76C017B018A01452B39F0AB01AA
:1034500070E060E0C8010E9465228983B701C6015F
:103460004ADD81110DC00115110551F0B701C801E8
:1034700079DD811105C061E070E0CE01019672DD59
:103480000F90DF91CF911F910F91FF90EF90DF9000
:10349000CF900895CF92DF92EF92FF92CF93DF9378
:1034A00000D000D01F921F92CDB7DEB76B01F12C78
:1034B000E12CC982DA82EB82FC822D833E834F832A
:1034C0005887AE014F5F5F4F68E070E0B0DF28962D
:1034D0000FB6F894DEBF0FBECDBFDF91CF91FF9046
:1034E000EF90DF90CF9008958F929F92AF92BF920E
:1034F000CF92DF92EF92FF920F931F93CF93DF93C0
:103500007C01EB01CA01690170DD0097B1F42FEF76
:103510003FEFA90161E070E0C701BCDFC1E08C2F83
:10352000DF91CF911F910F91FF90EF90DF90CF909F
:10353000BF90AF909F908F900895FC0181909190E3
:10354000A190B190BF01FCE1EF16F10479F4A5015F
:103550009401CE010E94340EC82FA5019401882346
:1035600069F061E070E0C70195DFD9CF9501840172
:10357000AB01B601CE010E94370CEECF70E060E0E7
:10358000C701DF91CF911F910F91FF90EF90DF90D6
:10359000CF90BF90AF909F908F907CCF0F931F9351
:1035A000CF93DF93EC018B014BDC9093CE0480939F
:1035B000CD040097A9F0A801BE01E1DBEC01892B45
:1035C00049F08091CD049091CE0485DC1092CE0418
:1035D0001092CD04CE01DF91CF911F910F910895EC
:1035E000CEE7D3E0EECF8091CD049091CE0470CCA5
:1035F0002F923F924F925F926F927F928F929F9203
:10360000AF92BF92CF92DF92EF92FF920F931F93F0
:10361000CF93DF93CDB7DEB769970FB6F894DEBFCF
:103620000FBECDBF2091D1042223F1F05B8B4A8BDA
:103630006E877F87888B998B9A01AB01BC01CE0185
:1036400001967C017BD910E048E0242E312CE88ED5
:10365000F98E89819A81181619060CF450C211232B
:1036600019F08A899B89A2DC69960FB6F894DEBFAF
:103670000FBECDBFDF91CF911F910F91FF90EF90C3
:10368000DF90CF90BF90AF909F908F907F906F9082
:103690005F904F903F902F900895EB81FC818C8537
:1036A0009D8533E0880F991F3A95E1F7E80FF91FE0
:1036B000808191819093C8048093C70424813581CF
:1036C000428153815093C6044093C504468157817B
:1036D0005093C4044093C304820F931F9C01990F1D
:1036E000440B550B2C8B3D8B4E8B5F8B812C912C7F
:1036F00054018C899D89AE89BF8988169906AA06CE
:10370000BB0638F18C859D85880F991FED81FE8160
:10371000E80FF91F4E855F856889798980819181DD
:103720000E940010AC85BD851196BD87AC8789814C
:103730009A81EC85FD85E817F9070CF4AECF2A894C
:103740003B894E855F8568897989888D998DF6D802
:1037500080CF1F826091C7047091C804CB01072EEF
:10376000000CAA0BBB0B84017501640134E0C30E8D
:10377000D11CE11CF11CC816D906EA06FB0608F0AC
:10378000B3C02091C5043091C604A4014C5F5F4FC3
:10379000240F351FF901C080D12CF12CE12C24011C
:1037A0003501F5E04F0E511C611C711C481659067D
:1037B0006A067B0608F0A3C02091C5043091C604B8
:1037C000F8013596E20FF31F2081D22A240135013A
:1037D00026E0420E511C611C711C481659066A06EF
:1037E0007B0608F097C02091C5043091C604F8010B
:1037F0003696E20FF31F2081E22A2401350137E0DB
:10380000430E511C611C711C481659066A067B0642
:1038100008F08BC02091C5043091C604F80137969A
:10382000E20FF31F208126013701722A750164011E
:1038300048E0C40ED11CE11CF11C8C159D05AE05A1
:10384000BF0508F41DC188169906AA06BB0608F034
:1038500077C08091C5049091C604800F911F68E0E5
:1038600070E080DBE091C704F091C8049F010F2E47
:10387000000C440B550BD301C2018C0D9D1DAE1DD8
:10388000BF1D281739074A075B0708F478C0C2161E
:10389000D306E406F50608F05DC08091C50490915A
:1038A000C6049801285F3F4F820F931FB2015ADB75
:1038B0008091C7049091C804AC01092E000C660BDE
:1038C000770BC416D506E606F70608F04DC0085F6C
:1038D0001F4F8091C5049091C604800F911FA201D3
:1038E00070E060E0F2D5A7C044E050E0461B570B03
:1038F000480D591D2091C3043091C40449CFE5E01F
:10390000F0E0E61BF70BE00FF11F2091C3043091AC
:10391000C40458CFE6E0F0E0E61BF70BE00FF11F20
:103920002091C3043091C40464CFE7E0F0E0E61BCB
:10393000F70BE00FF11F2091C3043091C40470CF46
:103940009801261B370B8091C3049091C404820F09
:10395000931F85CF91012E1B3F0B200F311F8091AC
:10396000C3049091C404A0CFD101A81BB90BCD0111
:10397000080F191F8091C3049091C404AECFBF01FA
:1039800068507109601B710BC216D306E406F50678
:1039900008F062C08091C5049091C6049801285F28
:1039A0003F4F820F931FDEDA8091C7049091C804C5
:1039B000B101681B790B600F711F640D751D80913B
:1039C000C3049091C404CEDA8091C7049091C804D6
:1039D000AC0148505109FA01E01BF10BAC01092E72
:1039E000000C660B770BC416D506E606F70608F042
:1039F0003DC08091C5049091C6049801285F3F4F57
:103A0000820F931FAF0170E060E05FD58F8320913C
:103A1000C7043091C804F101E21BF30B9F01200F92
:103A2000311F240D351D50E040E0682F8091C30404
:103A30009091C40436D58F8361E070E0CE01079683
:103A400091DA182F38E0430E511C611C711C840C54
:103A5000951CA61CB71C4DCE91012E1B3F0B200FB1
:103A6000311F8091C3049091C4049BCF9101281B06
:103A7000390B200F311F8091C3049091C404C0CF33
:103A800088169906AA06BB0668F5601B710B809123
:103A9000C5049091C604800F911F64DA8091C70419
:103AA0009091C804B101681B790B600F711F640D00
:103AB000751D8091C3049091C40454DA8091C704A9
:103AC0009091C804AC01092E000C660B770BC4164C
:103AD000D506E606F70608F4FACE9101281B390B45
:103AE000C90146CFC801861B970B2091C3043091B2
:103AF000C404B201685F7F4F820F931FDECF1D8623
:103B00001C8615CECF93DF93EC01AC0160E070E032
:103B1000CB016EDDAE0161E070E080E090E0DF910E
:103B2000CF9166CDCF938091CD049091CE048BD967
:103B3000C82F81110BC060E070E0CB010E94F90A30
:103B400061E070E080E090E00E94F90A8C2FCF9154
:103B500008950F931F9389019A01AB01BC018091D5
:103B6000CD049091CE04B8D91F910F9108954F9232
:103B70005F926F927F928F929F92AF92BF92CF92FD
:103B8000DF92EF92FF920F931F93CF93DF93CDB706
:103B9000DEB763970FB6F894DEBF0FBECDBF6C01E2
:103BA0008B015A018091D104882309F43DC0809192
:103BB000D104882309F442C08091D0041A8219826A
:103BC000882309F4C0C0F0E94F2EFFE55F2E66247C
:103BD0006394712CF12CE12C970127543B4FAE01DB
:103BE0004F5F5F4F61E070E08091CD049091CE0413
:103BF0004AD9982E811169C089819A81E80EF91EEF
:103C0000E114F10409F461C081E0481A5108610827
:103C1000710859F56091DC047091DD048DEE90E03F
:103C20006AD91A82198251C061ED74E08091CD0485
:103C30009091CE0452D9882309F4B9CF63960FB678
:103C4000F894DEBF0FBECDBFDF91CF911F910F91D2
:103C5000FF90EF90DF90CF90BF90AF909F908F90AC
:103C60007F906F905F904F900895AAE0EA16F1045C
:103C700009F063C049E050E070E060E089EB94E057
:103C800028D46091DC047091DD04882309F452C0CB
:103C90008091C10490E08617970719F6BC018EEE5B
:103CA00090E029D988E0E9EBF4E0DE011996019073
:103CB0000D928A95E1F78091DC049091DD040196E4
:103CC00099279093DD048093DC0481E029813A8177
:103CD000121613060CF080E09110CAC2882309F472
:103CE000ADCF8091D004811104C019861A861B863D
:103CF0001C8689859A85AB85BC8580319105A10597
:103D0000B10508F09BCFFC018827E657F14E8F4F95
:103D10000C946D2C0A1FC92038211E1E0E20412034
:103D2000FA1E021FDE1E1D210C2119211E1E1E1E41
:103D30001E1EC91E8FEE90E073CFBAE0EB16F104A1
:103D40000CF44ACFC2CFF12CE12CE8E06E2E712C9E
:103D500029E030E02C0F3D1F2E0D3F1DAE014F5FBF
:103D60005F4FB3016E197F098091CD049091CE040D
:103D70008AD8982E29813A81811109C0E20EF31E5A
:103D8000E114F10421F0E8E0EE16F1040CF381E017
:103D90009FCFD6011696ED91FC9180819181A281F1
:103DA000B38189839A83AB83BC83AE014F5F5F4F3E
:103DB00064E070E085E190E03ADB40CF8D859E8540
:103DC00014D92FEF3FEFA90161E070E0009771F087
:103DD000FC01C080D180E280F380A801C701B60158
:103DE0000E94790FA701960170E060E08DE190E0FC
:103DF00051DB24CF4D855E859801B6018BE190E0C3
:103E000073DB1CCF4D855E852FEF3FEFB6018CE154
:103E100090E0F6CFD6011496ED91FC9100811181CE
:103E2000F80182809380A080B18070E1472E512CF0
:103E3000612C712C49825A826B827C8288E090E0EE
:103E4000A0E0B0E08D839E83AF83B8879E012F5E94
:103E50003F4FAE014F5F5F4F68E070E08091CD044F
:103E60009091CE040E9425178823D9F010E000E03D
:103E7000C80163960FB6F894DEBF0FBECDBFDF91C9
:103E8000CF911F910F91FF90EF90DF90CF90BF9057
:103E9000AF909F908F907F906F905F904F900C9419
:103EA0009D2D89899A89089709F7D801ED90FC9092
:103EB000B8E0EB0EF11CEE0CFF1CEE0CFF1CC70172
:103EC0000E94012D8C01892B89F249825A826B82D2
:103ED0007C82C7010F2C000CAA0BBB0B8D839E8329
:103EE000AF83B8879E012F5E3F4FAE014F5F5F4F9C
:103EF00068E070E08091CD049091CE040E94251777
:103F00008111B6CF89899A89089709F0B1CFD60176
:103F10001296ED91FC914081518162817381D801AB
:103F20004D935D936D937C93139744815581668186
:103F3000778114964D935D936D937C93179740858D
:103F400051856285738518964D935D936D937C932F
:103F50001B9784859585A685B785F8018487958705
:103F6000A687B787108A118A128A138A84E090E0A4
:103F7000A0E0B0E0848B958BA68BB78B8091A402D8
:103F80009091A502B0E0A0E0808F918FA28FB38FB7
:103F9000C5010B2C000CAA0BBB0B848F958FA68F31
:103FA000B78FF401D801909690E080E08A159B05C8
:103FB0005CF19E012F5E3F4FA801B7018091CD04B7
:103FC0009091CE040E942517811152CF89899A8938
:103FD000E816F90609F04CCFA70170E060E0C801CF
:103FE00074D28B8B9E012F5E3F4FAE014D5E5F4FB3
:103FF00061E070E08091CD049091CE040E9425177D
:1040000081E08093D00434CF4191519170E060E021
:104010004D935D936D937D930196C8CF8D859E855D
:10402000AF85B8890097A105B10521F481E080939F
:10403000CF0404CE0E94F517009781F481E090E050
:10404000A0E0B0E089839A83AB83BC83AE014F5F6D
:104050005F4F64E070E082E190E0AECEBC01C6014B
:104060000E94530A19821A821B821C82AE014F5F82
:104070005F4F64E070E082E190E0D9D98823B1F22B
:10408000DDCDD6011496ED91FC910190F081E02DEB
:10409000E084F1848FEF8983E114F10409F472C0A4
:1040A000D7016D907C90C280D38070E060E090E09A
:1040B00080E08615970594F083E190E00E947B17DD
:1040C00010E000E08111BACD061517055CF161E042
:1040D00070E0CE0101960E94B217B0CD9C0143E082
:1040E000220F331F4A95E1F7F701A281B381A20F96
:1040F000B31F1296ED91FC911397EE0FFF1FEC0D7D
:10410000FD1D0190F081E02D16964D915C91E49F8C
:104110009001E59F300DF49F300D1124620F731F45
:104120000196C7CFD7011296ED91FC91C80123E00B
:10413000880F991F2A95E1F7E80FF91FA080B18039
:10414000A281B381AA0FBB1FAC0DBD1D2D913C9167
:1041500086819781289F4001299F900C389F900C61
:104160001124B401C5010E94B217582E940150E0E9
:1041700040E06981C50195D1898351105FCD0F5F02
:104180001F4FA2CF70E060E083E190E00E947B17B8
:1041900055CD50E040E070E060E081E190E047D92B
:1041A00081114CCD60E070E0CB010E941E0C80912B
:1041B000B304882329F0A80160E070E0CB0118DA8D
:1041C000A80160E070E0CB010E94250B61E070E087
:1041D00080E090E00E941E0C8091B304882331F0AF
:1041E000A80161E070E080E090E002DAA80161E0FF
:1041F00070E080E090E00E94250B1092D1041092B4
:10420000D0041092DD041092DC048091CD049091D2
:10421000CE040E94731712CD81E090E09093B50414
:104220008093B40450E040E070E060E086E190E00C
:10423000C3CD81E0F501808301CD8D859E850E94EF
:10424000F5172FEF3FEFA90161E070E0009769F0EB
:10425000DC01CD90DD90ED90FC90C701B6010E948D
:10426000D90FA701960170E060E08EE190E0C0CD2B
:10427000C8010E94D617E2CCCF92DF92EF92FF9254
:10428000CF93DF93EC01C12CD12C7601C701B6018D
:104290000E941E0CAE01C701B601AAD9AE01C7012A
:1042A000B6010E94250B8091C9049091CA04009721
:1042B00031F00E949D2D1092CA041092C904CA9434
:1042C000CD28CE28CF2879F58091D004F12C8823F1
:1042D00051F050E040E070E060E084E190E0A7D869
:1042E000F82E1092D0048091D104882341F01092CE
:1042F000D10481E090E09093A5028093A402809184
:10430000CD049091CE040E9476178091CD049091B7
:10431000CE040E946B178F2DDF91CF91FF90EF900D
:10432000DF90CF900895C12CD12C7601C394AECFED
:10433000CF93DF93EC01AC0160E070E0CB010E9411
:104340000E14AE0161E070E080E090E0DF91CF916B
:104350000C940E1460E070E0CB010E947B1461E0CD
:1043600070E080E090E00C947B14CF92DF92EF92AB
:10437000FF920F931F93CF93DF93EC016A017B01B0
:1043800000E010E098010E94291001E010E020E018
:1043900030E0B701A601CE010E942910DF91CF9134
:1043A0001F910F91FF90EF90DF90CF90089568EEEE
:1043B00073E080E090E0D4D390E080E0089526E0C0
:1043C00040E050E16EE070E08BEE94E02BD58BEE98
:1043D00094E05ED4892B21F08BEE94E073D4F7CF78
:1043E00090E080E00895CF92DF92EF92FF920F93DA
:1043F0001F93CF93DF936B017A01E9011982188231
:104400008BEE94E045D4892B71F18601CC24C394C2
:1044100085E6D82E8091DE04811111C08BEE94E0E8
:1044200051D485369105B1F7C092DE04F801D192DE
:104430008F0188819981019699838883EBCF888148
:1044400099818E159F0578F48BEE94E03BD48F3FD5
:104450009807A9F3F80181938F01888199810196CA
:1044600099838883ECCF90E080E0DF91CF911F911A
:104470000F91FF90EF90DF90CF9008950F931F93CF
:10448000CF93DF93EA0189018BEE94E05BD7F801CB
:10449000D183C08390E080E0DF91CF911F910F9195
:1044A0000895DC01A40FB51F420F531F9D01281B67
:1044B000390B2417350710F0862F0895ED91E62764
:1044C000F0E0EC51FF4F6491F1CF9A01AB016FEF37
:1044D000E8CFCF93FC01E60FF71FE40FF51FC08173
:1044E000F4DF91E0C81390E0892FCF910895809177
:1044F000DF0491E0980F9093DF04882349F021E0D6
:1045000030E03093E1042093E0048093DF040895C9
:1045100078940E943406F8948091DF04815080934F
:10452000DF040C94F815FF920F931F93CF93DF9342
:104530001F92CDB7DEB7109292071092910746D323
:104540000E944B160091C8021091C902F801118215
:10455000108270E060E090E080E00E9400160E940F
:10456000CB07F8947894C80186960E94FF1581E0E5
:1045700090E00E94FC151982AE014F5F5F4F61E031
:1045800070E0F801828193810E94AC1589818823B3
:1045900019F081E0F80182A70E940516F8940E94A4
:1045A0009E16F80180819181892B19F481E092A5F2
:1045B000911180E08093910778947894FF24F3948C
:1045C00080919107811110C00E941B0981E090E049
:1045D0000E94FD15F89490E080E00F90DF91CF915C
:1045E0001F910F91FF9008951982AE014F5F5F4FA9
:1045F00061E070E0F801828193810E94E415898175
:10460000882311F0F801F2A6F80180819181892BAD
:1046100089F481E092A5911101C080E08093920716
:104620009091920781E0911180E0809391070E9420
:10463000BD16C6CF81E0F2CF5058BB27AA270ED0B7
:104640005CC14DD130F052D120F031F49F3F11F4D4
:104650001EF442C10EF4E095E7FB0FC1E92F5ED1D5
:1046600080F3BA17620773078407950718F071F48F
:104670009EF58DC10EF4E0950B2EBA2FA02D0B01E7
:10468000B90190010C01CA01A0011124FF27591B97
:1046900099F0593F50F4503E68F11A16F040A22F9D
:1046A000232F342F4427585FF3CF4695379527950E
:1046B000A795F0405395C9F77EF41F16BA0B620B0D
:1046C000730B840BBAF09150A1F0FF0FBB1F661F54
:1046D000771F881FC2F70EC0BA0F621F731F841F97
:1046E00048F4879577956795B795F7959E3F08F0BD
:1046F000B3CF9395880F08F09927EE0F979587957C
:1047000008952ED180F09F3740F491110EF440C1EE
:1047100060E070E080E89FE3089526F01B16611DBD
:10472000711D811DB0C0CAC084D008F481E0089515
:1047300004D06894B1112CC10895F8D088F09F5727
:1047400090F0B92F9927B751A0F0D1F0660F771FDD
:10475000881F991F1AF0BA95C9F712C0B13081F0BD
:1047600016D1B1E0089513C1672F782F8827B85F5D
:1047700039F0B93FCCF3869577956795B395D9F71E
:104780003EF490958095709561957F4F8F4F9F4F28
:104790000895E89409C097FB3EF490958095709534
:1047A00061957F4F8F4F9F4F9923A9F0F92F96E97D
:1047B000BB279395F695879577956795B795F111F2
:1047C000F8CFFAF4BB0F11F460FF1BC06F5F7F4F8F
:1047D0008F4F9F4F16C0882311F096E911C07723A1
:1047E00021F09EE8872F762F05C0662371F096E8AA
:1047F000862F70E060E02AF09A95660F771F881F79
:10480000DAF7880F9695879597F90895A9D080F0E3
:104810009F3740F491110EF0BBC060E070E080E87B
:104820009FEB089526F41B16611D711D811D2BC081
:1048300045C0990F0008550FAA0BE0E8FEEF1616C9
:104840001706E807F907C0F012161306E407F50784
:1048500098F0621B730B840B950B39F40A2661F0F8
:10486000232B242B252B21F408950A2609F4A1409B
:10487000A6958FEF811D811D089597F99F6780E8A8
:1048800070E060E00895882371F4772321F0985058
:10489000872B762F07C0662311F499270DC09051FE
:1048A000862B70E060E02AF09A95660F771F881FCC
:1048B000DAF7880F9695879597F908959F3F31F01D
:1048C000915020F4879577956795B795880F911D3E
:1048D0009695879597F908959FEF80EC08950024A9
:1048E0000A941616170618060906089500240A9455
:1048F00012161306140605060895092E0394000CDB
:1049000011F4882352F0BB0F40F4BF2B11F460FF69
:1049100004C06F5F7F4F8F4F9F4F089557FD905892
:10492000440F551F59F05F3F71F04795880F97FB73
:10493000991F61F09F3F79F087950895121613062D
:104940001406551FF2CF4695F1DF08C0161617065C
:104950001806991FF1CF8695710561050894089591
:10496000E5DFA0F0BEE7B91788F4BB279F3860F4F5
:104970001616B11D672F782F8827985FF7CF869579
:1049800077956795B11D93959639C8F30895E89486
:10499000BB2766277727CB0197F908954ADF08F4EC
:1049A0008FEF08950BD0A9CF9ADF28F09FDF18F082
:1049B000952309F062CF90CF1124EACFAFDFA0F3A7
:1049C000959FD1F3950F50E0551F629FF001729FA4
:1049D000BB27F00DB11D639FAA27F00DB11DAA1FC3
:1049E000649F6627B00DA11D661F829F2227B00D10
:1049F000A11D621F739FB00DA11D621F839FA00D9B
:104A0000611D221F749F3327A00D611D231F849FEA
:104A1000600D211D822F762F6A2F11249F57504041
:104A20008AF0E1F088234AF0EE0FFF1FBB1F661FDC
:104A3000771F881F91505040A9F79E3F510570F095
:104A40001CCFA6CF5F3FECF3983EDCF386957795BD
:104A50006795B795F795E7959F5FC1F7FE2B880F90
:104A6000911D9695879597F908951F920F920FB60D
:104A70000F9211242F933F938F939F93AF93BF93E4
:104A80008091E3049091E404A091E504B091E604E0
:104A90003091E20423E0230F2D3758F50196A11D34
:104AA000B11D2093E2048093E3049093E404A09367
:104AB000E504B093E6048091E7049091E804A091A6
:104AC000E904B091EA040196A11DB11D8093E704A9
:104AD0009093E804A093E904B093EA04BF91AF91E6
:104AE0009F918F913F912F910F900FBE0F901F902C
:104AF000189526E8230F0296A11DB11DD2CF2FB71E
:104B0000F8946091E3047091E4048091E50490913D
:104B1000E6042FBF08953FB7F8948091E704909181
:104B2000E804A091E904B091EA0426B5A89B05C069
:104B30002F3F19F00196A11DB11D3FBFBA2FA92F1C
:104B4000982F8827BC01CD01620F711D811D911D19
:104B500042E0660F771F881F991F4A95D1F7089585
:104B60008F929F92AF92BF92CF92DF92EF92FF927D
:104B70006B017C01D0DF4B015C01C114D104E10465
:104B8000F104D9F060D6C7DF681979098A099B0951
:104B9000683E73408105910580F321E0C21AD10877
:104BA000E108F10888EE880E83E0981EA11CB11C74
:104BB000C114D104E104F10431F7FF90EF90DF90CC
:104BC000CF90BF90AF909F908F900895789484B5C8
:104BD000826084BD84B5816084BD85B5826085BDF9
:104BE00085B5816085BDEEE6F0E0808181608083DF
:104BF000E1E8F0E0108280818260808380818160C2
:104C00008083E0E8F0E0808181608083E1EBF0E088
:104C1000808184608083E0EBF0E08081816080832C
:104C2000E1E9F0E08081826080838081816080831F
:104C3000E0E9F0E0808181608083E1EAF0E080815A
:104C400082608083808181608083E0EAF0E08081FF
:104C500081608083E1E2F1E08081826080838081F5
:104C600081608083E0E2F1E0808181608083EAE717
:104C7000F0E0808184608083808182608083808195
:104C8000816080838081806880831092C100089554
:104C9000FC01918D228D892F90E0805C9F4F821BBB
:104CA00091098F7399270895FC01918D828D981732
:104CB00031F0828DE80FF11D858D90E008958FEF22
:104CC0009FEF0895FC01918D828D981761F0A28D60
:104CD000AE0FBF2FB11D5D968C91928D9F5F9F731C
:104CE000928F90E008958FEF9FEF0895FC01538D10
:104CF000448D252F30E0842F90E0821B930B5417B6
:104D000010F0CF96089501970895FC01A48DA80F87
:104D1000B92FB11DA35ABF4F2C91848D90E00196FD
:104D20008F739927848FA689B7892C93A089B1891D
:104D30008C91837080648C93938D848D981306C0BE
:104D40000288F389E02D80818F7D80830895CF9341
:104D5000DF93EC01888D8823B1F0AA89BB89E889AB
:104D6000F9898C9185FD03C0808186FD0CC00FB64A
:104D700007FCF7CF8C9185FFF2CF808185FFEDCFC7
:104D8000CE01C3DFEACFDF91CF910895EF92FF927A
:104D90000F931F93CF93DF93EC0181E0888F9B8D5E
:104DA0008C8D98131AC0E889F989808185FF15C018
:104DB0009FB7F894EE89FF896083E889F98980813B
:104DC0008370806480839FBF81E090E0DF91CF910A
:104DD0001F910F91FF90EF900895F62E0B8D10E02C
:104DE0000F5F1F4F0F731127E02E8C8D8E110BC09C
:104DF0000FB607FCFACFE889F989808185FFF5CFE6
:104E0000CE0183DFF2CFEB8DEC0FFD2FF11DE35AC6
:104E1000FF4FF0829FB7F8940B8FEA89FB8980815E
:104E20008062D0CFCF92DF92EF92FF921F93CF9309
:104E3000DF93EC016A017B01122FE889F98982E096
:104E40008083C11481EED806E104F10499F060E09A
:104E500079E08DE390E0A70196011DD5215031093D
:104E6000410951095695479537952795211580E1B8
:104E7000380790F0E889F989108260E874E88EE1DB
:104E800090E0A701960107D5215031094109510948
:104E90005695479537952795EC85FD853083EE85AA
:104EA000FF852083188EEC89FD891083EA89FB89B0
:104EB000808180618083EA89FB898081886080832A
:104EC000EA89FB89808180688083EA89FB89808107
:104ED0008F7D8083DF91CF911F91FF90EF90DF90C6
:104EE000CF9008951F920F920FB60F9211240BB618
:104EF0000F922F938F939F93EF93FF93E091FB0477
:104F0000F091FC048081E0910105F091020582FDA1
:104F10001DC09081809104058F5F8F7320910505DE
:104F2000821741F0E0910405F0E0E551FB4F958FC9
:104F300080930405FF91EF919F918F912F910F9096
:104F40000BBE0F900FBE0F901F9018958081F2CF6F
:104F50001F920F920FB60F9211240BB60F922F9340
:104F60003F934F935F936F937F938F939F93AF93F1
:104F7000BF93EF93FF938BEE94E0C7DEFF91EF9129
:104F8000BF91AF919F918F917F916F915F914F9161
:104F90003F912F910F900BBE0F900FBE0F901F905F
:104FA0001895EBEEF4E01382128288EE93E0A0E015
:104FB000B0E084839583A683B7838DEB93E09183E0
:104FC000808385EC90E09587848784EC90E09787D8
:104FD000868780EC90E0918B808B81EC90E0938BC6
:104FE000828B82EC90E0958B848B86EC90E0978BA3
:104FF000868B118E128E138E148E08951F920F922F
:105000000FB60F9211240BB60F922F938F939F938D
:10501000EF93FF93E0919805F09199058081E091DD
:105020009E05F0919F0582FD1DC090818091A10594
:105030008F5F8F732091A205821741F0E091A10547
:10504000F0E0E857FA4F958F8093A105FF91EF911B
:105050009F918F912F910F900BBE0F900FBE0F90CD
:105060001F9018958081F2CF1F920F920FB60F926A
:1050700011240BB60F922F933F934F935F936F932F
:105080007F938F939F93AF93BF93EF93FF9388E8A2
:1050900095E03BDEFF91EF91BF91AF919F918F9192
:1050A0007F916F915F914F913F912F910F900BBE28
:1050B0000F900FBE0F901F901895E8E8F5E013824F
:1050C000128288EE93E0A0E0B0E084839583A6830B
:1050D000B7838DEB93E0918380838DEC90E095878F
:1050E00084878CEC90E09787868788EC90E0918BA2
:1050F000808B89EC90E0938B828B8AEC90E0958B8F
:10510000848B8EEC90E0978B868B118E128E138E93
:10511000148E08951F920F920FB60F9211240BB6A2
:105120000F922F938F939F93EF93FF93E091350608
:10513000F09136068081E0913B06F0913C0682FDBD
:105140001DC0908180913E068F5F8F7320913F0636
:10515000821741F0E0913E06F0E0EB5DF94F958F4C
:1051600080933E06FF91EF919F918F912F910F9029
:105170000BBE0F900FBE0F901F9018958081F2CF3D
:105180001F920F920FB60F9211240BB60F922F930E
:105190003F934F935F936F937F938F939F93AF93BF
:1051A000BF93EF93FF9385E296E0AFDDFF91EF9120
:1051B000BF91AF919F918F917F916F915F914F912F
:1051C0003F912F910F900BBE0F900FBE0F901F902D
:1051D0001895E5E2F6E01382128288EE93E0A0E0F3
:1051E000B0E084839583A683B7838DEB93E09183AE
:1051F000808385ED90E09587848784ED90E09787A4
:10520000868780ED90E0918B808B81ED90E0938B91
:10521000828B82ED90E0958B848B86ED90E0978B6E
:10522000868B118E128E138E148E08951F920F92FC
:105230000FB60F9211240BB60F922F938F939F935B
:10524000EF93FF93E091D206F091D3068081E09135
:10525000D806F091D90682FD1DC090818091DB06B1
:105260008F5F8F732091DC06821741F0E091DB069F
:10527000F0E0EE53F94F958F8093DB06FF91EF91AD
:105280009F918F912F910F900BBE0F900FBE0F909B
:105290001F9018958081F2CF1F920F920FB60F9238
:1052A00011240BB60F922F933F934F935F936F93FD
:1052B0007F938F939F93AF93BF93EF93FF9382EC72
:1052C00096E023DDFF91EF91BF91AF919F918F9178
:1052D0007F916F915F914F913F912F910F900BBEF6
:1052E0000F900FBE0F901F901895E2ECF6E013821E
:1052F000128288EE93E0A0E0B0E084839583A683D9
:10530000B7838DEB93E09183808385E391E095876C
:10531000848784E391E09787868780E391E0918B8F
:10532000808B81E391E0938B828B82E391E0958B7C
:10533000848B86E391E0978B868B118E128E138E71
:10534000148E0895AF92BF92CF92DF92EF92FF92A8
:105350000F931F93CF93DF936C017B018B01040F9D
:10536000151FEB015E01AE18BF08C017D10759F039
:105370006991D601ED91FC910190F081E02DC6017B
:105380001995892B79F7C501DF91CF911F910F9165
:10539000FF90EF90DF90CF90BF90AF900895FB010A
:1053A00001900020E9F73197AF01461B570BDC0154
:1053B000ED91FC910280F381E02D19946115710546
:1053C00009F0EDCF90E080E00895DC01ED91FC91D3
:1053D0000190F081E02D19946BEC73E0E0CF8F9297
:1053E0009F92AF92BF92EF92FF920F931F93CF9332
:1053F000DF93CDB7DEB7A1970FB6F894DEBF0FBE2F
:10540000CDBF7C01FA01CB0119A2223008F42AE0B9
:105410008E010F5D1F4F822E912CB12CA12CBF014C
:10542000A501940138D2F901CA016A3004F5605D22
:10543000D8016E938D01232B242B252B81F790E02F
:1054400080E0109719F0BD01C701A9DFA1960FB642
:10545000F894DEBF0FBECDBFDF91CF911F910F91AA
:10546000FF90EF90BF90AF909F908F900895695CF0
:10547000DFCFCF92DF92EF92FF920F931F93CF93E4
:10548000DF932115310581F4DC01ED91FC91019050
:10549000F081E02D642FDF91CF911F910F91FF904C
:1054A000EF90DF90CF9019942A303105F1F42AE083
:1054B00077FF1BC06A017B01EC016DE286DF8C0186
:1054C00044275527BA014C195D096E097F092AE066
:1054D000CE0185DF800F911FDF91CF911F910F913A
:1054E000FF90EF90DF90CF900895DF91CF911F91C3
:1054F0000F91FF90EF90DF90CF9071CF9A01AB01A9
:10550000770F660B770BB5CF0F931F93CF93DF9376
:10551000EC01F4DF8C01CE015FDF800F911FDF9182
:10552000CF911F910F9108950F931F93CF93DF9306
:10553000EC019FDF8C01CE014FDF800F911FDF91C7
:10554000CF911F910F9108952115310541F4DC0190
:10555000ED91FC910190F081E02D642F19943FCFE3
:105560009A01462F50E070E060E0EECF0F931F935A
:10557000CF93DF93EC01F4DF8C01CE012DDF800FA0
:10558000911FDF91CF911F910F9108959A01AB0167
:1055900070E060E0D9CF0F931F93CF93DF93EC01BE
:1055A000F5DF8C01CE0118DF800F911FDF91CF91C5
:1055B0001F910F9108950F931F93CF93DF93EC01E9
:1055C000C3DF8C01CE0108DF800F911FDF91CF91E7
:1055D0001F910F9108952F923F924F925F926F9279
:1055E0007F928F929F92AF92BF92CF92DF92EF9273
:1055F000FF921F93CF93DF93EC016A017B01722E20
:10560000AB019601CB01B601DDD16EEC73E08111E7
:1056100023C046015701E894B7F82FEF3FEF4FE75B
:105620005FE7C501B401CED181110BC02FEF3FEF71
:105630004FE75FE7C501B40177D862ED73E0181654
:105640005CF02FEF3FEF4FE75FE4C701B601A6D94B
:105650001816ACF466ED73E0CE01DF91CF911F9187
:10566000FF90EF90DF90CF90BF90AF909F908F9082
:105670007F906F905F904F903F902F9090CE2FEF44
:105680003FEF4FE75FECC701B6014ED887FDE2CF91
:1056900020E030E0A901C701B60146D8312C212C09
:1056A00087FF08C06DE2CE0190DE1C01F7FAF0948E
:1056B000F7F8F09410E060E070E080E09FE371168E
:1056C00039F020E030E040E251E40FD11F5FF7CF26
:1056D000A70196010E941D232B013C012ED84B01EE
:1056E0005C012AE0BC01A401CE0179DE7C01E20C60
:1056F000F31C112381F1C501B4014BD89B01AC010E
:10570000C301B2010E941C234B015C016EE2CE0179
:105710005CDEE80EF91E1150F0F020E030E040E2CF
:1057200051E4C501B4013ED92B013C0106D84B011F
:105730004AE050E0CE012ADFE80EF91EB40190E005
:1057400080E027D89B01AC01C301B2010E941C2359
:105750004B015C01E0CFC701DF91CF911F91FF901A
:10576000EF90DF90CF90BF90AF909F908F907F9001
:105770006F905F904F903F902F9008952CCF0F9394
:105780001F93CF93DF93EC0126DF8C01CE0124DE43
:10579000800F911FDF91CF911F910F9108950F936B
:1057A0001F93CF93DF93EC01AAD9688779878A8703
:1057B0009B87E881F9810284F385E02DCE0119955C
:1057C00097FF14C09CD9088519852A853B85601BE5
:1057D000710B820B930B0C811D812E813F81601711
:1057E00071078207930728F38FEF9FEFDF91CF9127
:1057F0001F910F910895AF92BF92CF92DF92EF92D7
:10580000FF920F931F93CF93DF935C017B018B017A
:10581000040F151FEB016E01CE18DF08C017D1076A
:1058200031F0C501BCDF97FD02C08993F4CFC601FA
:10583000DF91CF911F910F91FF90EF90DF90CF906C
:10584000BF90AF9008950895AA1BBB1B51E107C0FC
:10585000AA1FBB1FA617B70710F0A61BB70B881F00
:10586000991F5A95A9F780959095BC01CD0108958F
:1058700097FB072E16F4009406D077FD08D0E4DFDE
:1058800007FC05D03EF4909581959F4F0895709543
:1058900061957F4F0895A1E21A2EAA1BBB1BFD0143
:1058A0000DC0AA1FBB1FEE1FFF1FA217B307E407FF
:1058B000F50720F0A21BB30BE40BF50B661F771F57
:1058C000881F991F1A9469F7609570958095909537
:1058D0009B01AC01BD01CF010895EE0FFF1F881F92
:1058E0008BBF0790F691E02D199410D006C80E9446
:1058F000762450F00E946F2438F029F45F3F21F0A5
:105900000C943D24511144C80C946C2407D878F3AE
:105910009923C1F35523A1F3951B550BBB27AA2748
:1059200062177307840738F09F5F5F4F220F331FA2
:10593000441FAA1FA9F334D00E2E3AF0E0E831D06C
:1059400091505040E695001CCAF72AD0FE2F28D06F
:10595000660F771F881FBB1F261737074807AB073F
:10596000B0E809F0BB0B802DBF01FF2793585F4FB4
:1059700032F09E3F510570F00C943D2409C85F3F02
:10598000ECF3983EDCF3869577956795B795F79598
:105990009F5FC9F7880F911D9695879597F9089590
:1059A000E1E0660F771F881FBB1F6217730784072C
:1059B000BA0720F0621B730B840BBA0BEE1F88F73B
:1059C000E09508950E941924880B990B08950F9370
:1059D0001F93CF93DF93869F8001879F100D969F23
:1059E000100D1124C8010DD0EC01009721F0A80181
:1059F00070E060E034D1CE01DF91CF911F910F9123
:105A000008950F931F93CF93DF938230910510F485
:105A100082E090E0E0919507F091960730E020E079
:105A2000B0E0A0E0309799F42115310509F44AC09F
:105A3000281B390B24303105D8F58A819B816115EB
:105A4000710589F1FB0193838283FE0111C04081BE
:105A500051810281138148175907E0F0481759070F
:105A600099F4109761F012960C93129713961C9369
:105A70003296CF01DF91CF911F910F91089500933E
:105A8000950710939607F4CF2115310551F0421771
:105A9000530738F0A901DB019A01BD01DF01F801CC
:105AA000C1CFEF01F9CF9093960780939507CDCFA3
:105AB000FE01E20FF31F8193919322503109398344
:105AC0002883D7CF2091930730919407232B41F45B
:105AD00020910202309103023093940720939307A0
